{
  "contractName": "HelloNetwork",
  "abi": [
    {
      "anonymous": false,
      "inputs": [
        {
          "indexed": false,
          "internalType": "address",
          "name": "_who",
          "type": "address"
        },
        {
          "indexed": false,
          "internalType": "uint256",
          "name": "_when",
          "type": "uint256"
        }
      ],
      "name": "AddedBlackList",
      "type": "event"
    },
    {
      "anonymous": false,
      "inputs": [
        {
          "indexed": true,
          "internalType": "address",
          "name": "owner",
          "type": "address"
        },
        {
          "indexed": true,
          "internalType": "address",
          "name": "spender",
          "type": "address"
        },
        {
          "indexed": false,
          "internalType": "uint256",
          "name": "value",
          "type": "uint256"
        }
      ],
      "name": "Approval",
      "type": "event"
    },
    {
      "anonymous": false,
      "inputs": [
        {
          "indexed": false,
          "internalType": "address",
          "name": "_who",
          "type": "address"
        },
        {
          "indexed": false,
          "internalType": "uint256",
          "name": "_howmuch",
          "type": "uint256"
        },
        {
          "indexed": false,
          "internalType": "uint256",
          "name": "_when",
          "type": "uint256"
        }
      ],
      "name": "DestroyedBlackFunds",
      "type": "event"
    },
    {
      "anonymous": false,
      "inputs": [
        {
          "indexed": false,
          "internalType": "address",
          "name": "account",
          "type": "address"
        }
      ],
      "name": "Paused",
      "type": "event"
    },
    {
      "anonymous": false,
      "inputs": [
        {
          "indexed": false,
          "internalType": "address",
          "name": "_who",
          "type": "address"
        },
        {
          "indexed": false,
          "internalType": "uint256",
          "name": "_when",
          "type": "uint256"
        }
      ],
      "name": "RemovedBlackList",
      "type": "event"
    },
    {
      "anonymous": false,
      "inputs": [
        {
          "indexed": true,
          "internalType": "bytes32",
          "name": "role",
          "type": "bytes32"
        },
        {
          "indexed": true,
          "internalType": "bytes32",
          "name": "previousAdminRole",
          "type": "bytes32"
        },
        {
          "indexed": true,
          "internalType": "bytes32",
          "name": "newAdminRole",
          "type": "bytes32"
        }
      ],
      "name": "RoleAdminChanged",
      "type": "event"
    },
    {
      "anonymous": false,
      "inputs": [
        {
          "indexed": true,
          "internalType": "bytes32",
          "name": "role",
          "type": "bytes32"
        },
        {
          "indexed": true,
          "internalType": "address",
          "name": "account",
          "type": "address"
        },
        {
          "indexed": true,
          "internalType": "address",
          "name": "sender",
          "type": "address"
        }
      ],
      "name": "RoleGranted",
      "type": "event"
    },
    {
      "anonymous": false,
      "inputs": [
        {
          "indexed": true,
          "internalType": "bytes32",
          "name": "role",
          "type": "bytes32"
        },
        {
          "indexed": true,
          "internalType": "address",
          "name": "account",
          "type": "address"
        },
        {
          "indexed": true,
          "internalType": "address",
          "name": "sender",
          "type": "address"
        }
      ],
      "name": "RoleRevoked",
      "type": "event"
    },
    {
      "anonymous": false,
      "inputs": [
        {
          "indexed": true,
          "internalType": "address",
          "name": "from",
          "type": "address"
        },
        {
          "indexed": true,
          "internalType": "address",
          "name": "to",
          "type": "address"
        },
        {
          "indexed": false,
          "internalType": "uint256",
          "name": "value",
          "type": "uint256"
        }
      ],
      "name": "Transfer",
      "type": "event"
    },
    {
      "anonymous": false,
      "inputs": [
        {
          "indexed": false,
          "internalType": "address",
          "name": "account",
          "type": "address"
        }
      ],
      "name": "Unpaused",
      "type": "event"
    },
    {
      "inputs": [],
      "name": "DEFAULT_ADMIN_ROLE",
      "outputs": [
        {
          "internalType": "bytes32",
          "name": "",
          "type": "bytes32"
        }
      ],
      "stateMutability": "view",
      "type": "function",
      "constant": true
    },
    {
      "inputs": [],
      "name": "GOVERNANCE_ROLE",
      "outputs": [
        {
          "internalType": "bytes32",
          "name": "",
          "type": "bytes32"
        }
      ],
      "stateMutability": "view",
      "type": "function",
      "constant": true
    },
    {
      "inputs": [],
      "name": "MINTER_ROLE",
      "outputs": [
        {
          "internalType": "bytes32",
          "name": "",
          "type": "bytes32"
        }
      ],
      "stateMutability": "view",
      "type": "function",
      "constant": true
    },
    {
      "inputs": [],
      "name": "OPERATOR_ROLE",
      "outputs": [
        {
          "internalType": "bytes32",
          "name": "",
          "type": "bytes32"
        }
      ],
      "stateMutability": "view",
      "type": "function",
      "constant": true
    },
    {
      "inputs": [],
      "name": "PAUSER_ROLE",
      "outputs": [
        {
          "internalType": "bytes32",
          "name": "",
          "type": "bytes32"
        }
      ],
      "stateMutability": "view",
      "type": "function",
      "constant": true
    },
    {
      "inputs": [
        {
          "internalType": "address",
          "name": "owner",
          "type": "address"
        },
        {
          "internalType": "address",
          "name": "spender",
          "type": "address"
        }
      ],
      "name": "allowance",
      "outputs": [
        {
          "internalType": "uint256",
          "name": "",
          "type": "uint256"
        }
      ],
      "stateMutability": "view",
      "type": "function",
      "constant": true
    },
    {
      "inputs": [
        {
          "internalType": "address",
          "name": "spender",
          "type": "address"
        },
        {
          "internalType": "uint256",
          "name": "amount",
          "type": "uint256"
        }
      ],
      "name": "approve",
      "outputs": [
        {
          "internalType": "bool",
          "name": "",
          "type": "bool"
        }
      ],
      "stateMutability": "nonpayable",
      "type": "function"
    },
    {
      "inputs": [
        {
          "internalType": "address",
          "name": "account",
          "type": "address"
        }
      ],
      "name": "balanceOf",
      "outputs": [
        {
          "internalType": "uint256",
          "name": "",
          "type": "uint256"
        }
      ],
      "stateMutability": "view",
      "type": "function",
      "constant": true
    },
    {
      "inputs": [
        {
          "internalType": "uint256",
          "name": "amount",
          "type": "uint256"
        }
      ],
      "name": "burn",
      "outputs": [],
      "stateMutability": "nonpayable",
      "type": "function"
    },
    {
      "inputs": [
        {
          "internalType": "address",
          "name": "account",
          "type": "address"
        },
        {
          "internalType": "uint256",
          "name": "amount",
          "type": "uint256"
        }
      ],
      "name": "burnFrom",
      "outputs": [],
      "stateMutability": "nonpayable",
      "type": "function"
    },
    {
      "inputs": [],
      "name": "decimals",
      "outputs": [
        {
          "internalType": "uint8",
          "name": "",
          "type": "uint8"
        }
      ],
      "stateMutability": "view",
      "type": "function",
      "constant": true
    },
    {
      "inputs": [
        {
          "internalType": "address",
          "name": "spender",
          "type": "address"
        },
        {
          "internalType": "uint256",
          "name": "subtractedValue",
          "type": "uint256"
        }
      ],
      "name": "decreaseAllowance",
      "outputs": [
        {
          "internalType": "bool",
          "name": "",
          "type": "bool"
        }
      ],
      "stateMutability": "nonpayable",
      "type": "function"
    },
    {
      "inputs": [
        {
          "internalType": "bytes32",
          "name": "role",
          "type": "bytes32"
        }
      ],
      "name": "getRoleAdmin",
      "outputs": [
        {
          "internalType": "bytes32",
          "name": "",
          "type": "bytes32"
        }
      ],
      "stateMutability": "view",
      "type": "function",
      "constant": true
    },
    {
      "inputs": [
        {
          "internalType": "bytes32",
          "name": "role",
          "type": "bytes32"
        },
        {
          "internalType": "address",
          "name": "account",
          "type": "address"
        }
      ],
      "name": "grantRole",
      "outputs": [],
      "stateMutability": "nonpayable",
      "type": "function"
    },
    {
      "inputs": [
        {
          "internalType": "bytes32",
          "name": "role",
          "type": "bytes32"
        },
        {
          "internalType": "address",
          "name": "account",
          "type": "address"
        }
      ],
      "name": "hasRole",
      "outputs": [
        {
          "internalType": "bool",
          "name": "",
          "type": "bool"
        }
      ],
      "stateMutability": "view",
      "type": "function",
      "constant": true
    },
    {
      "inputs": [
        {
          "internalType": "address",
          "name": "spender",
          "type": "address"
        },
        {
          "internalType": "uint256",
          "name": "addedValue",
          "type": "uint256"
        }
      ],
      "name": "increaseAllowance",
      "outputs": [
        {
          "internalType": "bool",
          "name": "",
          "type": "bool"
        }
      ],
      "stateMutability": "nonpayable",
      "type": "function"
    },
    {
      "inputs": [
        {
          "internalType": "address",
          "name": "",
          "type": "address"
        }
      ],
      "name": "isBlackListed",
      "outputs": [
        {
          "internalType": "bool",
          "name": "",
          "type": "bool"
        }
      ],
      "stateMutability": "view",
      "type": "function",
      "constant": true
    },
    {
      "inputs": [],
      "name": "name",
      "outputs": [
        {
          "internalType": "string",
          "name": "",
          "type": "string"
        }
      ],
      "stateMutability": "view",
      "type": "function",
      "constant": true
    },
    {
      "inputs": [],
      "name": "paused",
      "outputs": [
        {
          "internalType": "bool",
          "name": "",
          "type": "bool"
        }
      ],
      "stateMutability": "view",
      "type": "function",
      "constant": true
    },
    {
      "inputs": [
        {
          "internalType": "bytes32",
          "name": "role",
          "type": "bytes32"
        },
        {
          "internalType": "address",
          "name": "account",
          "type": "address"
        }
      ],
      "name": "renounceRole",
      "outputs": [],
      "stateMutability": "nonpayable",
      "type": "function"
    },
    {
      "inputs": [
        {
          "internalType": "bytes32",
          "name": "role",
          "type": "bytes32"
        },
        {
          "internalType": "address",
          "name": "account",
          "type": "address"
        }
      ],
      "name": "revokeRole",
      "outputs": [],
      "stateMutability": "nonpayable",
      "type": "function"
    },
    {
      "inputs": [
        {
          "internalType": "bytes4",
          "name": "interfaceId",
          "type": "bytes4"
        }
      ],
      "name": "supportsInterface",
      "outputs": [
        {
          "internalType": "bool",
          "name": "",
          "type": "bool"
        }
      ],
      "stateMutability": "view",
      "type": "function",
      "constant": true
    },
    {
      "inputs": [],
      "name": "symbol",
      "outputs": [
        {
          "internalType": "string",
          "name": "",
          "type": "string"
        }
      ],
      "stateMutability": "view",
      "type": "function",
      "constant": true
    },
    {
      "inputs": [],
      "name": "totalSupply",
      "outputs": [
        {
          "internalType": "uint256",
          "name": "",
          "type": "uint256"
        }
      ],
      "stateMutability": "view",
      "type": "function",
      "constant": true
    },
    {
      "inputs": [
        {
          "internalType": "address",
          "name": "recipient",
          "type": "address"
        },
        {
          "internalType": "uint256",
          "name": "amount",
          "type": "uint256"
        }
      ],
      "name": "transfer",
      "outputs": [
        {
          "internalType": "bool",
          "name": "",
          "type": "bool"
        }
      ],
      "stateMutability": "nonpayable",
      "type": "function"
    },
    {
      "inputs": [
        {
          "internalType": "address",
          "name": "sender",
          "type": "address"
        },
        {
          "internalType": "address",
          "name": "recipient",
          "type": "address"
        },
        {
          "internalType": "uint256",
          "name": "amount",
          "type": "uint256"
        }
      ],
      "name": "transferFrom",
      "outputs": [
        {
          "internalType": "bool",
          "name": "",
          "type": "bool"
        }
      ],
      "stateMutability": "nonpayable",
      "type": "function"
    },
    {
      "inputs": [
        {
          "internalType": "address",
          "name": "_admin",
          "type": "address"
        },
        {
          "internalType": "address",
          "name": "_governance",
          "type": "address"
        },
        {
          "internalType": "address",
          "name": "_operator",
          "type": "address"
        },
        {
          "internalType": "address",
          "name": "_pauser",
          "type": "address"
        },
        {
          "internalType": "address",
          "name": "_minter",
          "type": "address"
        },
        {
          "internalType": "address",
          "name": "_mintTo",
          "type": "address"
        }
      ],
      "name": "initialize",
      "outputs": [],
      "stateMutability": "nonpayable",
      "type": "function"
    },
    {
      "inputs": [],
      "name": "pause",
      "outputs": [],
      "stateMutability": "nonpayable",
      "type": "function"
    },
    {
      "inputs": [],
      "name": "unpause",
      "outputs": [],
      "stateMutability": "nonpayable",
      "type": "function"
    },
    {
      "inputs": [
        {
          "internalType": "address",
          "name": "to",
          "type": "address"
        },
        {
          "internalType": "uint256",
          "name": "amount",
          "type": "uint256"
        }
      ],
      "name": "mint",
      "outputs": [],
      "stateMutability": "nonpayable",
      "type": "function"
    },
    {
      "inputs": [
        {
          "internalType": "address",
          "name": "_who",
          "type": "address"
        }
      ],
      "name": "addBlackList",
      "outputs": [],
      "stateMutability": "nonpayable",
      "type": "function"
    },
    {
      "inputs": [
        {
          "internalType": "address",
          "name": "_who",
          "type": "address"
        }
      ],
      "name": "removeBlackList",
      "outputs": [],
      "stateMutability": "nonpayable",
      "type": "function"
    },
    {
      "inputs": [
        {
          "internalType": "address",
          "name": "_who",
          "type": "address"
        }
      ],
      "name": "getBlackListStatus",
      "outputs": [
        {
          "internalType": "bool",
          "name": "",
          "type": "bool"
        }
      ],
      "stateMutability": "view",
      "type": "function",
      "constant": true
    },
    {
      "inputs": [
        {
          "internalType": "address",
          "name": "_blackListedUser",
          "type": "address"
        }
      ],
      "name": "burnBlackFunds",
      "outputs": [],
      "stateMutability": "nonpayable",
      "type": "function"
    }
  ],
  "bytecode": "0x608060405234801561001057600080fd5b50612011806100206000396000f3fe608060405234801561001057600080fd5b50600436106102065760003560e01c806379cc67901161011a578063cc2a9a5b116100ad578063e47d60601161007c578063e47d60601461048c578063e4997dc5146104b0578063e63ab1e9146104c3578063f36c8f5c146104d8578063f5b541a6146104ff57600080fd5b8063cc2a9a5b14610406578063d539139314610419578063d547741f14610440578063dd62ed3e1461045357600080fd5b806395d89b41116100e957806395d89b41146103d0578063a217fddf146103d8578063a457c2d7146103e0578063a9059cbb146103f357600080fd5b806379cc67901461038f578063800c0384146103a25780638456cb59146103b557806391d14854146103bd57600080fd5b8063313ce5671161019d57806340c10f191161016c57806340c10f191461030857806342966c681461031b57806359bf1abe1461032e5780635c975abb1461035b57806370a082311461036657600080fd5b8063313ce567146102cb57806336568abe146102da57806339509351146102ed5780633f4ba83a1461030057600080fd5b806318160ddd116101d957806318160ddd1461027057806323b872dd14610282578063248a9ca3146102955780632f2ff15d146102b857600080fd5b806301ffc9a71461020b57806306fdde0314610233578063095ea7b3146102485780630ecb93c01461025b575b600080fd5b61021e610219366004611cad565b610514565b60405190151581526020015b60405180910390f35b61023b61054b565b60405161022a9190611d4a565b61021e610256366004611c4a565b6105dd565b61026e610269366004611b50565b6105f3565b005b6035545b60405190815260200161022a565b61021e610290366004611c0f565b61066e565b6102746102a3366004611c73565b600090815260fb602052604090206001015490565b61026e6102c6366004611c8b565b61071d565b6040516012815260200161022a565b61026e6102e8366004611c8b565b610748565b61021e6102fb366004611c4a565b6107c6565b61026e610802565b61026e610316366004611c4a565b610826565b61026e610329366004611c73565b61085b565b61021e61033c366004611b50565b6001600160a01b0316600090815261012d602052604090205460ff1690565b60975460ff1661021e565b610274610374366004611b50565b6001600160a01b031660009081526033602052604090205490565b61026e61039d366004611c4a565b610865565b61026e6103b0366004611b50565b6108e6565b61026e6109f5565b61021e6103cb366004611c8b565b610a16565b61023b610a41565b610274600081565b61021e6103ee366004611c4a565b610a50565b61021e610401366004611c4a565b610ae9565b61026e610414366004611b9c565b610af6565b6102747f9f2df0fed2c77648de5860a4cc508cd0818c85b8b8a1ab4ceeef8d981c8956a681565b61026e61044e366004611c8b565b610c7c565b610274610461366004611b6a565b6001600160a01b03918216600090815260346020908152604080832093909416825291909152205490565b61021e61049a366004611b50565b61012d6020526000908152604090205460ff1681565b61026e6104be366004611b50565b610ca2565b610274600080516020611fbc83398151915281565b6102747f71840dc4906352362b0cdaf79870196c8e42acafade72d5d5a6d59291253ceb181565b610274600080516020611f9c83398151915281565b60006001600160e01b03198216637965db0b60e01b148061054557506301ffc9a760e01b6001600160e01b03198316145b92915050565b60606036805461055a90611f4a565b80601f016020809104026020016040519081016040528092919081815260200182805461058690611f4a565b80156105d35780601f106105a8576101008083540402835291602001916105d3565b820191906000526020600020905b8154815290600101906020018083116105b657829003601f168201915b5050505050905090565b60006105ea338484610d12565b50600192915050565b600080516020611f9c83398151915261060c8133610e36565b6001600160a01b038216600081815261012d6020908152604091829020805460ff19166001179055815192835243908301527f870a827f6a9c11105845c784e8e5b7f11ab81bb613f977e071182e8f4e961b2f91015b60405180910390a15050565b600061067b848484610e9a565b6001600160a01b0384166000908152603460209081526040808320338452909152902054828110156107055760405162461bcd60e51b815260206004820152602860248201527f45524332303a207472616e7366657220616d6f756e74206578636565647320616044820152676c6c6f77616e636560c01b60648201526084015b60405180910390fd5b6107128533858403610d12565b506001949350505050565b600082815260fb60205260409020600101546107398133610e36565b6107438383611075565b505050565b6001600160a01b03811633146107b85760405162461bcd60e51b815260206004820152602f60248201527f416363657373436f6e74726f6c3a2063616e206f6e6c792072656e6f756e636560448201526e103937b632b9903337b91039b2b63360891b60648201526084016106fc565b6107c282826110fb565b5050565b3360008181526034602090815260408083206001600160a01b038716845290915281205490916105ea9185906107fd908690611dcb565b610d12565b600080516020611fbc83398151915261081b8133610e36565b610823611162565b50565b7f9f2df0fed2c77648de5860a4cc508cd0818c85b8b8a1ab4ceeef8d981c8956a66108518133610e36565b61074383836111f5565b61082333826112e0565b60006108718333610461565b9050818110156108cf5760405162461bcd60e51b8152602060048201526024808201527f45524332303a206275726e20616d6f756e74206578636565647320616c6c6f77604482015263616e636560e01b60648201526084016106fc565b6108dc8333848403610d12565b61074383836112e0565b600080516020611f9c8339815191526108ff8133610e36565b6001600160a01b038216600090815261012d602052604090205460ff166109855760405162461bcd60e51b815260206004820152603460248201527f4275726e426c61636b46756e64733a3a20426c61636b6c6973742075736572206044820152736265666f72652064657374726f792066756e647360601b60648201526084016106fc565b6001600160a01b0382166000908152603360205260409020546109a883826112e0565b604080516001600160a01b038516815260208101839052438183015290517f06c89fe42d74f2e7605b481ff538bae978cbb071618f6c00c8adf9d5fd420c929181900360600190a1505050565b600080516020611fbc833981519152610a0e8133610e36565b61082361143a565b600091825260fb602090815260408084206001600160a01b0393909316845291905290205460ff1690565b60606037805461055a90611f4a565b3360009081526034602090815260408083206001600160a01b038616845290915281205482811015610ad25760405162461bcd60e51b815260206004820152602560248201527f45524332303a2064656372656173656420616c6c6f77616e63652062656c6f77604482015264207a65726f60d81b60648201526084016106fc565b610adf3385858403610d12565b5060019392505050565b60006105ea338484610e9a565b600054610100900460ff1680610b0f575060005460ff16155b610b2b5760405162461bcd60e51b81526004016106fc90611d7d565b600054610100900460ff16158015610b4d576000805461ffff19166101011790555b610b986040518060400160405280600c81526020016b48656c6c6f4e6574776f726b60a01b8152506040518060400160405280600581526020016448454c4c4f60d81b8152506114b5565b610ba0611534565b610ba86115af565b610bb0611616565b610bbb600088611675565b610be57f71840dc4906352362b0cdaf79870196c8e42acafade72d5d5a6d59291253ceb187611675565b610bfd600080516020611f9c83398151915286611675565b610c15600080516020611fbc83398151915285611675565b610c3782610c256012600a611e26565b610c3290620f4240611ed1565b6111f5565b610c617f9f2df0fed2c77648de5860a4cc508cd0818c85b8b8a1ab4ceeef8d981c8956a684611675565b8015610c73576000805461ff00191690555b50505050505050565b600082815260fb6020526040902060010154610c988133610e36565b61074383836110fb565b600080516020611f9c833981519152610cbb8133610e36565b6001600160a01b038216600081815261012d6020908152604091829020805460ff19169055815192835243908301527fb2dd51202c6b064f53c1c254607146ea58a40ae98c93215174d1daa0be5c04189101610662565b6001600160a01b038316610d745760405162461bcd60e51b8152602060048201526024808201527f45524332303a20617070726f76652066726f6d20746865207a65726f206164646044820152637265737360e01b60648201526084016106fc565b6001600160a01b038216610dd55760405162461bcd60e51b815260206004820152602260248201527f45524332303a20617070726f766520746f20746865207a65726f206164647265604482015261737360f01b60648201526084016106fc565b6001600160a01b0383811660008181526034602090815260408083209487168084529482529182902085905590518481527f8c5be1e5ebec7d5bd14f71427d1e84f3dd0314c0f7b2291e5b200ac8c7c3b925910160405180910390a3505050565b610e408282610a16565b6107c257610e58816001600160a01b0316601461167f565b610e6383602061167f565b604051602001610e74929190611cd5565b60408051601f198184030181529082905262461bcd60e51b82526106fc91600401611d4a565b6001600160a01b038316610efe5760405162461bcd60e51b815260206004820152602560248201527f45524332303a207472616e736665722066726f6d20746865207a65726f206164604482015264647265737360d81b60648201526084016106fc565b6001600160a01b038216610f605760405162461bcd60e51b815260206004820152602360248201527f45524332303a207472616e7366657220746f20746865207a65726f206164647260448201526265737360e81b60648201526084016106fc565b610f6b838383611868565b6001600160a01b03831660009081526033602052604090205481811015610fe35760405162461bcd60e51b815260206004820152602660248201527f45524332303a207472616e7366657220616d6f756e7420657863656564732062604482015265616c616e636560d01b60648201526084016106fc565b6001600160a01b0380851660009081526033602052604080822085850390559185168152908120805484929061101a908490611dcb565b92505081905550826001600160a01b0316846001600160a01b03167fddf252ad1be2c89b69c2b068fc378daa952ba7f163c4a11628f55a4df523b3ef8460405161106691815260200190565b60405180910390a35b50505050565b61107f8282610a16565b6107c257600082815260fb602090815260408083206001600160a01b03851684529091529020805460ff191660011790556110b73390565b6001600160a01b0316816001600160a01b0316837f2f8788117e7eff1d82e926ec794901d17c78024a50270940304540a733656f0d60405160405180910390a45050565b6111058282610a16565b156107c257600082815260fb602090815260408083206001600160a01b0385168085529252808320805460ff1916905551339285917ff6391f5c32d9c69d2a47ea670b442974b53935d1edc7fd64eb21e047a839171b9190a45050565b60975460ff166111ab5760405162461bcd60e51b815260206004820152601460248201527314185d5cd8589b194e881b9bdd081c185d5cd95960621b60448201526064016106fc565b6097805460ff191690557f5db9ee0a495bf2e6ff9c91a7834c1ba4fdd244a5e8aa4e537bd38aeae4b073aa335b6040516001600160a01b03909116815260200160405180910390a1565b6001600160a01b03821661124b5760405162461bcd60e51b815260206004820152601f60248201527f45524332303a206d696e7420746f20746865207a65726f20616464726573730060448201526064016106fc565b61125760008383611868565b80603560008282546112699190611dcb565b90915550506001600160a01b03821660009081526033602052604081208054839290611296908490611dcb565b90915550506040518181526001600160a01b038316906000907fddf252ad1be2c89b69c2b068fc378daa952ba7f163c4a11628f55a4df523b3ef9060200160405180910390a35050565b6001600160a01b0382166113405760405162461bcd60e51b815260206004820152602160248201527f45524332303a206275726e2066726f6d20746865207a65726f206164647265736044820152607360f81b60648201526084016106fc565b61134c82600083611868565b6001600160a01b038216600090815260336020526040902054818110156113c05760405162461bcd60e51b815260206004820152602260248201527f45524332303a206275726e20616d6f756e7420657863656564732062616c616e604482015261636560f01b60648201526084016106fc565b6001600160a01b03831660009081526033602052604081208383039055603580548492906113ef908490611ef0565b90915550506040518281526000906001600160a01b038516907fddf252ad1be2c89b69c2b068fc378daa952ba7f163c4a11628f55a4df523b3ef9060200160405180910390a3505050565b60975460ff16156114805760405162461bcd60e51b815260206004820152601060248201526f14185d5cd8589b194e881c185d5cd95960821b60448201526064016106fc565b6097805460ff191660011790557f62e78cea01bee320cd4e420270b5ea74000d11b0c9f74754ebdbfc544b05a2586111d83390565b600054610100900460ff16806114ce575060005460ff16155b6114ea5760405162461bcd60e51b81526004016106fc90611d7d565b600054610100900460ff1615801561150c576000805461ffff19166101011790555b611514611927565b61151e8383611991565b8015610743576000805461ff0019169055505050565b600054610100900460ff168061154d575060005460ff16155b6115695760405162461bcd60e51b81526004016106fc90611d7d565b600054610100900460ff1615801561158b576000805461ffff19166101011790555b611593611927565b61159b611927565b8015610823576000805461ff001916905550565b600054610100900460ff16806115c8575060005460ff16155b6115e45760405162461bcd60e51b81526004016106fc90611d7d565b600054610100900460ff16158015611606576000805461ffff19166101011790555b61160e611927565b61159b611a26565b600054610100900460ff168061162f575060005460ff16155b61164b5760405162461bcd60e51b81526004016106fc90611d7d565b600054610100900460ff1615801561166d576000805461ffff19166101011790555b61158b611927565b6107c28282611075565b6060600061168e836002611ed1565b611699906002611dcb565b67ffffffffffffffff8111156116bf57634e487b7160e01b600052604160045260246000fd5b6040519080825280601f01601f1916602001820160405280156116e9576020820181803683370190505b509050600360fc1b8160008151811061171257634e487b7160e01b600052603260045260246000fd5b60200101906001600160f81b031916908160001a905350600f60fb1b8160018151811061174f57634e487b7160e01b600052603260045260246000fd5b60200101906001600160f81b031916908160001a9053506000611773846002611ed1565b61177e906001611dcb565b90505b6001811115611812576f181899199a1a9b1b9c1cb0b131b232b360811b85600f16601081106117c057634e487b7160e01b600052603260045260246000fd5b1a60f81b8282815181106117e457634e487b7160e01b600052603260045260246000fd5b60200101906001600160f81b031916908160001a90535060049490941c9361180b81611f33565b9050611781565b5083156118615760405162461bcd60e51b815260206004820181905260248201527f537472696e67733a20686578206c656e67746820696e73756666696369656e7460448201526064016106fc565b9392505050565b60975460ff16156118ae5760405162461bcd60e51b815260206004820152601060248201526f14185d5cd8589b194e881c185d5cd95960821b60448201526064016106fc565b6001600160a01b038316600090815261012d602052604090205460ff16156107435760405162461bcd60e51b815260206004820152602660248201527f4265666f7265546f6b656e5472616e736665723a3a205573657220626c61636b6044820152651b1a5cdd195960d21b60648201526084016106fc565b600054610100900460ff1680611940575060005460ff16155b61195c5760405162461bcd60e51b81526004016106fc90611d7d565b600054610100900460ff1615801561159b576000805461ffff19166101011790558015610823576000805461ff001916905550565b600054610100900460ff16806119aa575060005460ff16155b6119c65760405162461bcd60e51b81526004016106fc90611d7d565b600054610100900460ff161580156119e8576000805461ffff19166101011790555b82516119fb906036906020860190611a9b565b508151611a0f906037906020850190611a9b565b508015610743576000805461ff0019169055505050565b600054610100900460ff1680611a3f575060005460ff16155b611a5b5760405162461bcd60e51b81526004016106fc90611d7d565b600054610100900460ff16158015611a7d576000805461ffff19166101011790555b6097805460ff191690558015610823576000805461ff001916905550565b828054611aa790611f4a565b90600052602060002090601f016020900481019282611ac95760008555611b0f565b82601f10611ae257805160ff1916838001178555611b0f565b82800160010185558215611b0f579182015b82811115611b0f578251825591602001919060010190611af4565b50611b1b929150611b1f565b5090565b5b80821115611b1b5760008155600101611b20565b80356001600160a01b0381168114611b4b57600080fd5b919050565b600060208284031215611b61578081fd5b61186182611b34565b60008060408385031215611b7c578081fd5b611b8583611b34565b9150611b9360208401611b34565b90509250929050565b60008060008060008060c08789031215611bb4578182fd5b611bbd87611b34565b9550611bcb60208801611b34565b9450611bd960408801611b34565b9350611be760608801611b34565b9250611bf560808801611b34565b9150611c0360a08801611b34565b90509295509295509295565b600080600060608486031215611c23578283fd5b611c2c84611b34565b9250611c3a60208501611b34565b9150604084013590509250925092565b60008060408385031215611c5c578182fd5b611c6583611b34565b946020939093013593505050565b600060208284031215611c84578081fd5b5035919050565b60008060408385031215611c9d578182fd5b82359150611b9360208401611b34565b600060208284031215611cbe578081fd5b81356001600160e01b031981168114611861578182fd5b7f416363657373436f6e74726f6c3a206163636f756e7420000000000000000000815260008351611d0d816017850160208801611f07565b7001034b99036b4b9b9b4b733903937b6329607d1b6017918401918201528351611d3e816028840160208801611f07565b01602801949350505050565b6020815260008251806020840152611d69816040850160208701611f07565b601f01601f19169190910160400192915050565b6020808252602e908201527f496e697469616c697a61626c653a20636f6e747261637420697320616c72656160408201526d191e481a5b9a5d1a585b1a5e995960921b606082015260800190565b60008219821115611dde57611dde611f85565b500190565b600181815b80851115611e1e578160001904821115611e0457611e04611f85565b80851615611e1157918102915b93841c9390800290611de8565b509250929050565b600061186160ff841683600082611e3f57506001610545565b81611e4c57506000610545565b8160018114611e625760028114611e6c57611e88565b6001915050610545565b60ff841115611e7d57611e7d611f85565b50506001821b610545565b5060208310610133831016604e8410600b8410161715611eab575081810a610545565b611eb58383611de3565b8060001904821115611ec957611ec9611f85565b029392505050565b6000816000190483118215151615611eeb57611eeb611f85565b500290565b600082821015611f0257611f02611f85565b500390565b60005b83811015611f22578181015183820152602001611f0a565b8381111561106f5750506000910152565b600081611f4257611f42611f85565b506000190190565b600181811c90821680611f5e57607f821691505b60208210811415611f7f57634e487b7160e01b600052602260045260246000fd5b50919050565b634e487b7160e01b600052601160045260246000fdfe97667070c54ef182b0f5858b034beac1b6f3089aa2d3188bb1e8929f4fa9b92965d7a28e3265b37a6474929f336521b332c1681b933f6cb9f3376673440d862aa26469706673582212202efb1e09e80b9ff20f3a2247872a0c77c65c550a86d9b44086a2c95243ad1d5b64736f6c63430008040033",
  "immutableReferences": {},
  "source": "// SPDX-License-Identifier: MIT\npragma solidity 0.8.4;\n\nimport \"@openzeppelin/contracts-upgradeable/token/ERC20/ERC20Upgradeable.sol\";\nimport \"@openzeppelin/contracts-upgradeable/token/ERC20/extensions/ERC20BurnableUpgradeable.sol\";\nimport \"@openzeppelin/contracts-upgradeable/security/PausableUpgradeable.sol\";\nimport \"@openzeppelin/contracts-upgradeable/access/AccessControlUpgradeable.sol\";\nimport \"@openzeppelin/contracts-upgradeable/proxy/utils/Initializable.sol\";\n\ncontract HelloNetwork is\n    Initializable,\n    ERC20Upgradeable,\n    ERC20BurnableUpgradeable,\n    PausableUpgradeable,\n    AccessControlUpgradeable\n{\n    bytes32 public constant GOVERNANCE_ROLE = keccak256(\"GOVERNANCE_ROLE\");\n    bytes32 public constant OPERATOR_ROLE = keccak256(\"OPERATOR_ROLE\");\n    bytes32 public constant PAUSER_ROLE = keccak256(\"PAUSER_ROLE\");\n    bytes32 public constant MINTER_ROLE = keccak256(\"MINTER_ROLE\");\n\n    mapping(address => bool) public isBlackListed;\n    event AddedBlackList(address _who, uint256 _when);\n    event RemovedBlackList(address _who, uint256 _when);\n    event DestroyedBlackFunds(address _who, uint256 _howmuch, uint256 _when);\n\n    function initialize(\n        address _admin,\n        address _governance,\n        address _operator,\n        address _pauser,\n        address _minter,\n        address _mintTo\n    ) public initializer {\n        __ERC20_init(\"HelloNetwork\", \"HELLO\");\n        __ERC20Burnable_init();\n        __Pausable_init();\n        __AccessControl_init();\n\n        _setupRole(DEFAULT_ADMIN_ROLE, _admin);\n        _setupRole(GOVERNANCE_ROLE, _governance);\n        _setupRole(OPERATOR_ROLE, _operator);\n        _setupRole(PAUSER_ROLE, _pauser);\n        _mint(_mintTo, 1000000 * 10**decimals());\n        _setupRole(MINTER_ROLE, _minter);\n    }\n\n    function pause() public onlyRole(PAUSER_ROLE) {\n        _pause();\n    }\n\n    function unpause() public onlyRole(PAUSER_ROLE) {\n        _unpause();\n    }\n\n    function mint(address to, uint256 amount) public onlyRole(MINTER_ROLE) {\n        _mint(to, amount);\n    }\n    \n    function addBlackList(address _who) public onlyRole(OPERATOR_ROLE) {\n        isBlackListed[_who] = true;\n        emit AddedBlackList(_who, block.number);\n    }\n\n    function removeBlackList(address _who) public onlyRole(OPERATOR_ROLE) {\n        isBlackListed[_who] = false;\n        emit RemovedBlackList(_who, block.number);\n    }\n\n    function getBlackListStatus(address _who) external view returns (bool) {\n        return isBlackListed[_who];\n    }\n\n    function burnBlackFunds(address _blackListedUser)\n        public\n        onlyRole(OPERATOR_ROLE)\n    {\n        require(\n            isBlackListed[_blackListedUser],\n            \"BurnBlackFunds:: Blacklist user before destroy funds\"\n        );\n        uint256 dirtyFunds = balanceOf(_blackListedUser);\n        _burn(_blackListedUser, dirtyFunds);\n        emit DestroyedBlackFunds(_blackListedUser, dirtyFunds, block.number);\n    }\n\n    function _beforeTokenTransfer(\n        address from,\n        address to,\n        uint256 amount\n    ) internal override whenNotPaused {\n        require(!isBlackListed[from], \"BeforeTokenTransfer:: User blacklisted\");\n        super._beforeTokenTransfer(from, to, amount);\n    }\n}",
  "sourcePath": "/Users/rajesh/Documents/allinone/nv/Smart-Contract-2.0/contracts/HelloNetwork.sol",
  "compiler": {
    "name": "solc",
    "version": "0.8.4+commit.c7e474f2.Emscripten.clang"
  },
  "schemaVersion": "3.3.4",
  "updatedAt": "2021-12-06T07:52:42.538Z",
  "networkType": "ethereum",
  "devdoc": {
    "kind": "dev",
    "methods": {
      "allowance(address,address)": {
        "details": "See {IERC20-allowance}."
      },
      "approve(address,uint256)": {
        "details": "See {IERC20-approve}. Requirements: - `spender` cannot be the zero address."
      },
      "balanceOf(address)": {
        "details": "See {IERC20-balanceOf}."
      },
      "burn(uint256)": {
        "details": "Destroys `amount` tokens from the caller. See {ERC20-_burn}."
      },
      "burnFrom(address,uint256)": {
        "details": "Destroys `amount` tokens from `account`, deducting from the caller's allowance. See {ERC20-_burn} and {ERC20-allowance}. Requirements: - the caller must have allowance for ``accounts``'s tokens of at least `amount`."
      },
      "decimals()": {
        "details": "Returns the number of decimals used to get its user representation. For example, if `decimals` equals `2`, a balance of `505` tokens should be displayed to a user as `5.05` (`505 / 10 ** 2`). Tokens usually opt for a value of 18, imitating the relationship between Ether and Wei. This is the value {ERC20} uses, unless this function is overridden; NOTE: This information is only used for _display_ purposes: it in no way affects any of the arithmetic of the contract, including {IERC20-balanceOf} and {IERC20-transfer}."
      },
      "decreaseAllowance(address,uint256)": {
        "details": "Atomically decreases the allowance granted to `spender` by the caller. This is an alternative to {approve} that can be used as a mitigation for problems described in {IERC20-approve}. Emits an {Approval} event indicating the updated allowance. Requirements: - `spender` cannot be the zero address. - `spender` must have allowance for the caller of at least `subtractedValue`."
      },
      "getRoleAdmin(bytes32)": {
        "details": "Returns the admin role that controls `role`. See {grantRole} and {revokeRole}. To change a role's admin, use {_setRoleAdmin}."
      },
      "grantRole(bytes32,address)": {
        "details": "Grants `role` to `account`. If `account` had not been already granted `role`, emits a {RoleGranted} event. Requirements: - the caller must have ``role``'s admin role."
      },
      "hasRole(bytes32,address)": {
        "details": "Returns `true` if `account` has been granted `role`."
      },
      "increaseAllowance(address,uint256)": {
        "details": "Atomically increases the allowance granted to `spender` by the caller. This is an alternative to {approve} that can be used as a mitigation for problems described in {IERC20-approve}. Emits an {Approval} event indicating the updated allowance. Requirements: - `spender` cannot be the zero address."
      },
      "name()": {
        "details": "Returns the name of the token."
      },
      "paused()": {
        "details": "Returns true if the contract is paused, and false otherwise."
      },
      "renounceRole(bytes32,address)": {
        "details": "Revokes `role` from the calling account. Roles are often managed via {grantRole} and {revokeRole}: this function's purpose is to provide a mechanism for accounts to lose their privileges if they are compromised (such as when a trusted device is misplaced). If the calling account had been granted `role`, emits a {RoleRevoked} event. Requirements: - the caller must be `account`."
      },
      "revokeRole(bytes32,address)": {
        "details": "Revokes `role` from `account`. If `account` had been granted `role`, emits a {RoleRevoked} event. Requirements: - the caller must have ``role``'s admin role."
      },
      "supportsInterface(bytes4)": {
        "details": "See {IERC165-supportsInterface}."
      },
      "symbol()": {
        "details": "Returns the symbol of the token, usually a shorter version of the name."
      },
      "totalSupply()": {
        "details": "See {IERC20-totalSupply}."
      },
      "transfer(address,uint256)": {
        "details": "See {IERC20-transfer}. Requirements: - `recipient` cannot be the zero address. - the caller must have a balance of at least `amount`."
      },
      "transferFrom(address,address,uint256)": {
        "details": "See {IERC20-transferFrom}. Emits an {Approval} event indicating the updated allowance. This is not required by the EIP. See the note at the beginning of {ERC20}. Requirements: - `sender` and `recipient` cannot be the zero address. - `sender` must have a balance of at least `amount`. - the caller must have allowance for ``sender``'s tokens of at least `amount`."
      }
    },
    "version": 1
  },
  "userdoc": {
    "kind": "user",
    "methods": {},
    "version": 1
  }
}