{
  "contractName": "NitroNetwork",
  "abi": [
    {
      "anonymous": false,
      "inputs": [
        {
          "indexed": false,
          "internalType": "address",
          "name": "_who",
          "type": "address"
        },
        {
          "indexed": false,
          "internalType": "uint256",
          "name": "_when",
          "type": "uint256"
        }
      ],
      "name": "AddedBlackList",
      "type": "event"
    },
    {
      "anonymous": false,
      "inputs": [
        {
          "indexed": true,
          "internalType": "address",
          "name": "owner",
          "type": "address"
        },
        {
          "indexed": true,
          "internalType": "address",
          "name": "spender",
          "type": "address"
        },
        {
          "indexed": false,
          "internalType": "uint256",
          "name": "value",
          "type": "uint256"
        }
      ],
      "name": "Approval",
      "type": "event"
    },
    {
      "anonymous": false,
      "inputs": [
        {
          "indexed": false,
          "internalType": "address",
          "name": "_from",
          "type": "address"
        },
        {
          "indexed": false,
          "internalType": "address",
          "name": "_to",
          "type": "address"
        },
        {
          "indexed": false,
          "internalType": "uint256",
          "name": "_howmuch",
          "type": "uint256"
        },
        {
          "indexed": false,
          "internalType": "uint256",
          "name": "_when",
          "type": "uint256"
        }
      ],
      "name": "DestroyedBlackFunds",
      "type": "event"
    },
    {
      "anonymous": false,
      "inputs": [
        {
          "indexed": false,
          "internalType": "address",
          "name": "account",
          "type": "address"
        }
      ],
      "name": "Paused",
      "type": "event"
    },
    {
      "anonymous": false,
      "inputs": [
        {
          "indexed": false,
          "internalType": "address",
          "name": "_who",
          "type": "address"
        },
        {
          "indexed": false,
          "internalType": "uint256",
          "name": "_when",
          "type": "uint256"
        }
      ],
      "name": "RemovedBlackList",
      "type": "event"
    },
    {
      "anonymous": false,
      "inputs": [
        {
          "indexed": true,
          "internalType": "bytes32",
          "name": "role",
          "type": "bytes32"
        },
        {
          "indexed": true,
          "internalType": "bytes32",
          "name": "previousAdminRole",
          "type": "bytes32"
        },
        {
          "indexed": true,
          "internalType": "bytes32",
          "name": "newAdminRole",
          "type": "bytes32"
        }
      ],
      "name": "RoleAdminChanged",
      "type": "event"
    },
    {
      "anonymous": false,
      "inputs": [
        {
          "indexed": true,
          "internalType": "bytes32",
          "name": "role",
          "type": "bytes32"
        },
        {
          "indexed": true,
          "internalType": "address",
          "name": "account",
          "type": "address"
        },
        {
          "indexed": true,
          "internalType": "address",
          "name": "sender",
          "type": "address"
        }
      ],
      "name": "RoleGranted",
      "type": "event"
    },
    {
      "anonymous": false,
      "inputs": [
        {
          "indexed": true,
          "internalType": "bytes32",
          "name": "role",
          "type": "bytes32"
        },
        {
          "indexed": true,
          "internalType": "address",
          "name": "account",
          "type": "address"
        },
        {
          "indexed": true,
          "internalType": "address",
          "name": "sender",
          "type": "address"
        }
      ],
      "name": "RoleRevoked",
      "type": "event"
    },
    {
      "anonymous": false,
      "inputs": [
        {
          "indexed": true,
          "internalType": "address",
          "name": "from",
          "type": "address"
        },
        {
          "indexed": true,
          "internalType": "address",
          "name": "to",
          "type": "address"
        },
        {
          "indexed": false,
          "internalType": "uint256",
          "name": "value",
          "type": "uint256"
        }
      ],
      "name": "Transfer",
      "type": "event"
    },
    {
      "anonymous": false,
      "inputs": [
        {
          "indexed": false,
          "internalType": "address",
          "name": "account",
          "type": "address"
        }
      ],
      "name": "Unpaused",
      "type": "event"
    },
    {
      "inputs": [],
      "name": "DEFAULT_ADMIN_ROLE",
      "outputs": [
        {
          "internalType": "bytes32",
          "name": "",
          "type": "bytes32"
        }
      ],
      "stateMutability": "view",
      "type": "function"
    },
    {
      "inputs": [],
      "name": "GOVERNANCE_ROLE",
      "outputs": [
        {
          "internalType": "bytes32",
          "name": "",
          "type": "bytes32"
        }
      ],
      "stateMutability": "view",
      "type": "function"
    },
    {
      "inputs": [],
      "name": "MINTER_ROLE",
      "outputs": [
        {
          "internalType": "bytes32",
          "name": "",
          "type": "bytes32"
        }
      ],
      "stateMutability": "view",
      "type": "function"
    },
    {
      "inputs": [],
      "name": "OPERATOR_ROLE",
      "outputs": [
        {
          "internalType": "bytes32",
          "name": "",
          "type": "bytes32"
        }
      ],
      "stateMutability": "view",
      "type": "function"
    },
    {
      "inputs": [],
      "name": "PAUSER_ROLE",
      "outputs": [
        {
          "internalType": "bytes32",
          "name": "",
          "type": "bytes32"
        }
      ],
      "stateMutability": "view",
      "type": "function"
    },
    {
      "inputs": [
        {
          "internalType": "address",
          "name": "owner",
          "type": "address"
        },
        {
          "internalType": "address",
          "name": "spender",
          "type": "address"
        }
      ],
      "name": "allowance",
      "outputs": [
        {
          "internalType": "uint256",
          "name": "",
          "type": "uint256"
        }
      ],
      "stateMutability": "view",
      "type": "function"
    },
    {
      "inputs": [
        {
          "internalType": "address",
          "name": "spender",
          "type": "address"
        },
        {
          "internalType": "uint256",
          "name": "amount",
          "type": "uint256"
        }
      ],
      "name": "approve",
      "outputs": [
        {
          "internalType": "bool",
          "name": "",
          "type": "bool"
        }
      ],
      "stateMutability": "nonpayable",
      "type": "function"
    },
    {
      "inputs": [
        {
          "internalType": "address",
          "name": "account",
          "type": "address"
        }
      ],
      "name": "balanceOf",
      "outputs": [
        {
          "internalType": "uint256",
          "name": "",
          "type": "uint256"
        }
      ],
      "stateMutability": "view",
      "type": "function"
    },
    {
      "inputs": [
        {
          "internalType": "uint256",
          "name": "amount",
          "type": "uint256"
        }
      ],
      "name": "burn",
      "outputs": [],
      "stateMutability": "nonpayable",
      "type": "function"
    },
    {
      "inputs": [
        {
          "internalType": "address",
          "name": "account",
          "type": "address"
        },
        {
          "internalType": "uint256",
          "name": "amount",
          "type": "uint256"
        }
      ],
      "name": "burnFrom",
      "outputs": [],
      "stateMutability": "nonpayable",
      "type": "function"
    },
    {
      "inputs": [],
      "name": "decimals",
      "outputs": [
        {
          "internalType": "uint8",
          "name": "",
          "type": "uint8"
        }
      ],
      "stateMutability": "view",
      "type": "function"
    },
    {
      "inputs": [
        {
          "internalType": "address",
          "name": "spender",
          "type": "address"
        },
        {
          "internalType": "uint256",
          "name": "subtractedValue",
          "type": "uint256"
        }
      ],
      "name": "decreaseAllowance",
      "outputs": [
        {
          "internalType": "bool",
          "name": "",
          "type": "bool"
        }
      ],
      "stateMutability": "nonpayable",
      "type": "function"
    },
    {
      "inputs": [
        {
          "internalType": "bytes32",
          "name": "role",
          "type": "bytes32"
        }
      ],
      "name": "getRoleAdmin",
      "outputs": [
        {
          "internalType": "bytes32",
          "name": "",
          "type": "bytes32"
        }
      ],
      "stateMutability": "view",
      "type": "function"
    },
    {
      "inputs": [
        {
          "internalType": "bytes32",
          "name": "role",
          "type": "bytes32"
        },
        {
          "internalType": "address",
          "name": "account",
          "type": "address"
        }
      ],
      "name": "grantRole",
      "outputs": [],
      "stateMutability": "nonpayable",
      "type": "function"
    },
    {
      "inputs": [
        {
          "internalType": "bytes32",
          "name": "role",
          "type": "bytes32"
        },
        {
          "internalType": "address",
          "name": "account",
          "type": "address"
        }
      ],
      "name": "hasRole",
      "outputs": [
        {
          "internalType": "bool",
          "name": "",
          "type": "bool"
        }
      ],
      "stateMutability": "view",
      "type": "function"
    },
    {
      "inputs": [
        {
          "internalType": "address",
          "name": "spender",
          "type": "address"
        },
        {
          "internalType": "uint256",
          "name": "addedValue",
          "type": "uint256"
        }
      ],
      "name": "increaseAllowance",
      "outputs": [
        {
          "internalType": "bool",
          "name": "",
          "type": "bool"
        }
      ],
      "stateMutability": "nonpayable",
      "type": "function"
    },
    {
      "inputs": [
        {
          "internalType": "address",
          "name": "",
          "type": "address"
        }
      ],
      "name": "isBlackListed",
      "outputs": [
        {
          "internalType": "bool",
          "name": "",
          "type": "bool"
        }
      ],
      "stateMutability": "view",
      "type": "function"
    },
    {
      "inputs": [],
      "name": "name",
      "outputs": [
        {
          "internalType": "string",
          "name": "",
          "type": "string"
        }
      ],
      "stateMutability": "view",
      "type": "function"
    },
    {
      "inputs": [],
      "name": "paused",
      "outputs": [
        {
          "internalType": "bool",
          "name": "",
          "type": "bool"
        }
      ],
      "stateMutability": "view",
      "type": "function"
    },
    {
      "inputs": [
        {
          "internalType": "bytes32",
          "name": "role",
          "type": "bytes32"
        },
        {
          "internalType": "address",
          "name": "account",
          "type": "address"
        }
      ],
      "name": "renounceRole",
      "outputs": [],
      "stateMutability": "nonpayable",
      "type": "function"
    },
    {
      "inputs": [
        {
          "internalType": "bytes32",
          "name": "role",
          "type": "bytes32"
        },
        {
          "internalType": "address",
          "name": "account",
          "type": "address"
        }
      ],
      "name": "revokeRole",
      "outputs": [],
      "stateMutability": "nonpayable",
      "type": "function"
    },
    {
      "inputs": [
        {
          "internalType": "bytes4",
          "name": "interfaceId",
          "type": "bytes4"
        }
      ],
      "name": "supportsInterface",
      "outputs": [
        {
          "internalType": "bool",
          "name": "",
          "type": "bool"
        }
      ],
      "stateMutability": "view",
      "type": "function"
    },
    {
      "inputs": [],
      "name": "symbol",
      "outputs": [
        {
          "internalType": "string",
          "name": "",
          "type": "string"
        }
      ],
      "stateMutability": "view",
      "type": "function"
    },
    {
      "inputs": [],
      "name": "totalSupply",
      "outputs": [
        {
          "internalType": "uint256",
          "name": "",
          "type": "uint256"
        }
      ],
      "stateMutability": "view",
      "type": "function"
    },
    {
      "inputs": [
        {
          "internalType": "address",
          "name": "recipient",
          "type": "address"
        },
        {
          "internalType": "uint256",
          "name": "amount",
          "type": "uint256"
        }
      ],
      "name": "transfer",
      "outputs": [
        {
          "internalType": "bool",
          "name": "",
          "type": "bool"
        }
      ],
      "stateMutability": "nonpayable",
      "type": "function"
    },
    {
      "inputs": [
        {
          "internalType": "address",
          "name": "sender",
          "type": "address"
        },
        {
          "internalType": "address",
          "name": "recipient",
          "type": "address"
        },
        {
          "internalType": "uint256",
          "name": "amount",
          "type": "uint256"
        }
      ],
      "name": "transferFrom",
      "outputs": [
        {
          "internalType": "bool",
          "name": "",
          "type": "bool"
        }
      ],
      "stateMutability": "nonpayable",
      "type": "function"
    },
    {
      "inputs": [
        {
          "internalType": "address",
          "name": "_admin",
          "type": "address"
        },
        {
          "internalType": "address",
          "name": "_governance",
          "type": "address"
        },
        {
          "internalType": "address",
          "name": "_operator",
          "type": "address"
        },
        {
          "internalType": "address",
          "name": "_pauser",
          "type": "address"
        },
        {
          "internalType": "address",
          "name": "_minter",
          "type": "address"
        }
      ],
      "name": "initialize",
      "outputs": [],
      "stateMutability": "nonpayable",
      "type": "function"
    },
    {
      "inputs": [],
      "name": "pause",
      "outputs": [],
      "stateMutability": "nonpayable",
      "type": "function"
    },
    {
      "inputs": [],
      "name": "unpause",
      "outputs": [],
      "stateMutability": "nonpayable",
      "type": "function"
    },
    {
      "inputs": [
        {
          "internalType": "address",
          "name": "to",
          "type": "address"
        },
        {
          "internalType": "uint256",
          "name": "amount",
          "type": "uint256"
        }
      ],
      "name": "mint",
      "outputs": [],
      "stateMutability": "nonpayable",
      "type": "function"
    },
    {
      "inputs": [
        {
          "internalType": "address",
          "name": "_who",
          "type": "address"
        }
      ],
      "name": "addBlackList",
      "outputs": [],
      "stateMutability": "nonpayable",
      "type": "function"
    },
    {
      "inputs": [
        {
          "internalType": "address",
          "name": "_who",
          "type": "address"
        }
      ],
      "name": "removeBlackList",
      "outputs": [],
      "stateMutability": "nonpayable",
      "type": "function"
    },
    {
      "inputs": [
        {
          "internalType": "address",
          "name": "_who",
          "type": "address"
        }
      ],
      "name": "getBlackListStatus",
      "outputs": [
        {
          "internalType": "bool",
          "name": "",
          "type": "bool"
        }
      ],
      "stateMutability": "view",
      "type": "function"
    },
    {
      "inputs": [
        {
          "internalType": "address",
          "name": "from",
          "type": "address"
        },
        {
          "internalType": "address",
          "name": "to",
          "type": "address"
        },
        {
          "internalType": "uint256",
          "name": "howmuch",
          "type": "uint256"
        }
      ],
      "name": "recoverBlackFunds",
      "outputs": [],
      "stateMutability": "nonpayable",
      "type": "function"
    }
  ],
  "bytecode": "0x608060405234801561001057600080fd5b50611ee5806100206000396000f3fe608060405234801561001057600080fd5b50600436106102065760003560e01c806370a082311161011a578063a9059cbb116100ad578063e47d60601161007c578063e47d60601461048c578063e4997dc5146104b0578063e63ab1e9146104c3578063f36c8f5c146104d8578063f5b541a6146104ff57600080fd5b8063a9059cbb14610406578063d539139314610419578063d547741f14610440578063dd62ed3e1461045357600080fd5b806391d14854116100e957806391d14854146103d057806395d89b41146103e3578063a217fddf146103eb578063a457c2d7146103f357600080fd5b806370a082311461037957806379cc6790146103a25780638456cb59146103b5578063905087c1146103bd57600080fd5b80632f2ff15d1161019d5780633f4ba83a1161016c5780633f4ba83a1461031357806340c10f191461031b57806342966c681461032e57806359bf1abe146103415780635c975abb1461036e57600080fd5b80632f2ff15d146102cb578063313ce567146102de57806336568abe146102ed578063395093511461030057600080fd5b80631459457a116101d95780631459457a1461027057806318160ddd1461028357806323b872dd14610295578063248a9ca3146102a857600080fd5b806301ffc9a71461020b57806306fdde0314610233578063095ea7b3146102485780630ecb93c01461025b575b600080fd5b61021e610219366004611c6f565b610514565b60405190151581526020015b60405180910390f35b61023b61054b565b60405161022a9190611d0c565b61021e610256366004611c0c565b6105dd565b61026e610269366004611b21565b6105f3565b005b61026e61027e366004611b6d565b61066e565b6035545b60405190815260200161022a565b61021e6102a3366004611bd1565b6107da565b6102876102b6366004611c35565b600090815260fb602052604090206001015490565b61026e6102d9366004611c4d565b610884565b6040516012815260200161022a565b61026e6102fb366004611c4d565b6108af565b61021e61030e366004611c0c565b61092d565b61026e610969565b61026e610329366004611c0c565b61098d565b61026e61033c366004611c35565b6109c2565b61021e61034f366004611b21565b6001600160a01b0316600090815261012d602052604090205460ff1690565b60975460ff1661021e565b610287610387366004611b21565b6001600160a01b031660009081526033602052604090205490565b61026e6103b0366004611c0c565b6109cc565b61026e610a4d565b61026e6103cb366004611bd1565b610a6e565b61021e6103de366004611c4d565b610b6d565b61023b610b98565b610287600081565b61021e610401366004611c0c565b610ba7565b61021e610414366004611c0c565b610c40565b6102877f9f2df0fed2c77648de5860a4cc508cd0818c85b8b8a1ab4ceeef8d981c8956a681565b61026e61044e366004611c4d565b610c4d565b610287610461366004611b3b565b6001600160a01b03918216600090815260346020908152604080832093909416825291909152205490565b61021e61049a366004611b21565b61012d6020526000908152604090205460ff1681565b61026e6104be366004611b21565b610c73565b610287600080516020611e9083398151915281565b6102877f71840dc4906352362b0cdaf79870196c8e42acafade72d5d5a6d59291253ceb181565b610287600080516020611e7083398151915281565b60006001600160e01b03198216637965db0b60e01b148061054557506301ffc9a760e01b6001600160e01b03198316145b92915050565b60606036805461055a90611e1e565b80601f016020809104026020016040519081016040528092919081815260200182805461058690611e1e565b80156105d35780601f106105a8576101008083540402835291602001916105d3565b820191906000526020600020905b8154815290600101906020018083116105b657829003601f168201915b5050505050905090565b60006105ea338484610ce3565b50600192915050565b600080516020611e7083398151915261060c8133610e07565b6001600160a01b038216600081815261012d6020908152604091829020805460ff19166001179055815192835243908301527f870a827f6a9c11105845c784e8e5b7f11ab81bb613f977e071182e8f4e961b2f91015b60405180910390a15050565b600054610100900460ff1680610687575060005460ff16155b6106ac5760405162461bcd60e51b81526004016106a390611d3f565b60405180910390fd5b600054610100900460ff161580156106ce576000805461ffff19166101011790555b6107196040518060400160405280600c81526020016b4e6974726f4e6574776f726b60a01b815250604051806040016040528060058152602001640dcc6c2e6d60db1b815250610e6b565b610721610eea565b610729610f65565b610731610fcc565b61073c60008761102b565b6107667f71840dc4906352362b0cdaf79870196c8e42acafade72d5d5a6d59291253ceb18661102b565b61077e600080516020611e708339815191528561102b565b610796600080516020611e908339815191528461102b565b6107c07f9f2df0fed2c77648de5860a4cc508cd0818c85b8b8a1ab4ceeef8d981c8956a68361102b565b80156107d2576000805461ff00191690555b505050505050565b60006107e7848484611035565b6001600160a01b03841660009081526034602090815260408083203384529091529020548281101561086c5760405162461bcd60e51b815260206004820152602860248201527f45524332303a207472616e7366657220616d6f756e74206578636565647320616044820152676c6c6f77616e636560c01b60648201526084016106a3565b6108798533858403610ce3565b506001949350505050565b600082815260fb60205260409020600101546108a08133610e07565b6108aa8383611210565b505050565b6001600160a01b038116331461091f5760405162461bcd60e51b815260206004820152602f60248201527f416363657373436f6e74726f6c3a2063616e206f6e6c792072656e6f756e636560448201526e103937b632b9903337b91039b2b63360891b60648201526084016106a3565b6109298282611296565b5050565b3360008181526034602090815260408083206001600160a01b038716845290915281205490916105ea918590610964908690611d8d565b610ce3565b600080516020611e908339815191526109828133610e07565b61098a6112fd565b50565b7f9f2df0fed2c77648de5860a4cc508cd0818c85b8b8a1ab4ceeef8d981c8956a66109b88133610e07565b6108aa8383611390565b61098a338261147b565b60006109d88333610461565b905081811015610a365760405162461bcd60e51b8152602060048201526024808201527f45524332303a206275726e20616d6f756e74206578636565647320616c6c6f77604482015263616e636560e01b60648201526084016106a3565b610a438333848403610ce3565b6108aa838361147b565b600080516020611e90833981519152610a668133610e07565b61098a6115d5565b600080516020611e70833981519152610a878133610e07565b6001600160a01b038416600090815261012d602052604090205460ff16610b165760405162461bcd60e51b815260206004820152603760248201527f5265636f766572426c61636b46756e64733a3a20426c61636b6c69737420757360448201527f6572206265666f7265207265636f7665722066756e647300000000000000000060648201526084016106a3565b604080516001600160a01b038087168252851660208201529081018390524360608201527feeb0dbaa2a5cc6be92c317978b9a012562a5d4498cb274ae5c1a433890e8e1b39060800160405180910390a150505050565b600091825260fb602090815260408084206001600160a01b0393909316845291905290205460ff1690565b60606037805461055a90611e1e565b3360009081526034602090815260408083206001600160a01b038616845290915281205482811015610c295760405162461bcd60e51b815260206004820152602560248201527f45524332303a2064656372656173656420616c6c6f77616e63652062656c6f77604482015264207a65726f60d81b60648201526084016106a3565b610c363385858403610ce3565b5060019392505050565b60006105ea338484611035565b600082815260fb6020526040902060010154610c698133610e07565b6108aa8383611296565b600080516020611e70833981519152610c8c8133610e07565b6001600160a01b038216600081815261012d6020908152604091829020805460ff19169055815192835243908301527fb2dd51202c6b064f53c1c254607146ea58a40ae98c93215174d1daa0be5c04189101610662565b6001600160a01b038316610d455760405162461bcd60e51b8152602060048201526024808201527f45524332303a20617070726f76652066726f6d20746865207a65726f206164646044820152637265737360e01b60648201526084016106a3565b6001600160a01b038216610da65760405162461bcd60e51b815260206004820152602260248201527f45524332303a20617070726f766520746f20746865207a65726f206164647265604482015261737360f01b60648201526084016106a3565b6001600160a01b0383811660008181526034602090815260408083209487168084529482529182902085905590518481527f8c5be1e5ebec7d5bd14f71427d1e84f3dd0314c0f7b2291e5b200ac8c7c3b925910160405180910390a3505050565b610e118282610b6d565b61092957610e29816001600160a01b03166014611650565b610e34836020611650565b604051602001610e45929190611c97565b60408051601f198184030181529082905262461bcd60e51b82526106a391600401611d0c565b600054610100900460ff1680610e84575060005460ff16155b610ea05760405162461bcd60e51b81526004016106a390611d3f565b600054610100900460ff16158015610ec2576000805461ffff19166101011790555b610eca611839565b610ed483836118a3565b80156108aa576000805461ff0019169055505050565b600054610100900460ff1680610f03575060005460ff16155b610f1f5760405162461bcd60e51b81526004016106a390611d3f565b600054610100900460ff16158015610f41576000805461ffff19166101011790555b610f49611839565b610f51611839565b801561098a576000805461ff001916905550565b600054610100900460ff1680610f7e575060005460ff16155b610f9a5760405162461bcd60e51b81526004016106a390611d3f565b600054610100900460ff16158015610fbc576000805461ffff19166101011790555b610fc4611839565b610f51611938565b600054610100900460ff1680610fe5575060005460ff16155b6110015760405162461bcd60e51b81526004016106a390611d3f565b600054610100900460ff16158015611023576000805461ffff19166101011790555b610f41611839565b6109298282611210565b6001600160a01b0383166110995760405162461bcd60e51b815260206004820152602560248201527f45524332303a207472616e736665722066726f6d20746865207a65726f206164604482015264647265737360d81b60648201526084016106a3565b6001600160a01b0382166110fb5760405162461bcd60e51b815260206004820152602360248201527f45524332303a207472616e7366657220746f20746865207a65726f206164647260448201526265737360e81b60648201526084016106a3565b6111068383836119ad565b6001600160a01b0383166000908152603360205260409020548181101561117e5760405162461bcd60e51b815260206004820152602660248201527f45524332303a207472616e7366657220616d6f756e7420657863656564732062604482015265616c616e636560d01b60648201526084016106a3565b6001600160a01b038085166000908152603360205260408082208585039055918516815290812080548492906111b5908490611d8d565b92505081905550826001600160a01b0316846001600160a01b03167fddf252ad1be2c89b69c2b068fc378daa952ba7f163c4a11628f55a4df523b3ef8460405161120191815260200190565b60405180910390a35b50505050565b61121a8282610b6d565b61092957600082815260fb602090815260408083206001600160a01b03851684529091529020805460ff191660011790556112523390565b6001600160a01b0316816001600160a01b0316837f2f8788117e7eff1d82e926ec794901d17c78024a50270940304540a733656f0d60405160405180910390a45050565b6112a08282610b6d565b1561092957600082815260fb602090815260408083206001600160a01b0385168085529252808320805460ff1916905551339285917ff6391f5c32d9c69d2a47ea670b442974b53935d1edc7fd64eb21e047a839171b9190a45050565b60975460ff166113465760405162461bcd60e51b815260206004820152601460248201527314185d5cd8589b194e881b9bdd081c185d5cd95960621b60448201526064016106a3565b6097805460ff191690557f5db9ee0a495bf2e6ff9c91a7834c1ba4fdd244a5e8aa4e537bd38aeae4b073aa335b6040516001600160a01b03909116815260200160405180910390a1565b6001600160a01b0382166113e65760405162461bcd60e51b815260206004820152601f60248201527f45524332303a206d696e7420746f20746865207a65726f20616464726573730060448201526064016106a3565b6113f2600083836119ad565b80603560008282546114049190611d8d565b90915550506001600160a01b03821660009081526033602052604081208054839290611431908490611d8d565b90915550506040518181526001600160a01b038316906000907fddf252ad1be2c89b69c2b068fc378daa952ba7f163c4a11628f55a4df523b3ef9060200160405180910390a35050565b6001600160a01b0382166114db5760405162461bcd60e51b815260206004820152602160248201527f45524332303a206275726e2066726f6d20746865207a65726f206164647265736044820152607360f81b60648201526084016106a3565b6114e7826000836119ad565b6001600160a01b0382166000908152603360205260409020548181101561155b5760405162461bcd60e51b815260206004820152602260248201527f45524332303a206275726e20616d6f756e7420657863656564732062616c616e604482015261636560f01b60648201526084016106a3565b6001600160a01b038316600090815260336020526040812083830390556035805484929061158a908490611dc4565b90915550506040518281526000906001600160a01b038516907fddf252ad1be2c89b69c2b068fc378daa952ba7f163c4a11628f55a4df523b3ef9060200160405180910390a3505050565b60975460ff161561161b5760405162461bcd60e51b815260206004820152601060248201526f14185d5cd8589b194e881c185d5cd95960821b60448201526064016106a3565b6097805460ff191660011790557f62e78cea01bee320cd4e420270b5ea74000d11b0c9f74754ebdbfc544b05a2586113733390565b6060600061165f836002611da5565b61166a906002611d8d565b67ffffffffffffffff81111561169057634e487b7160e01b600052604160045260246000fd5b6040519080825280601f01601f1916602001820160405280156116ba576020820181803683370190505b509050600360fc1b816000815181106116e357634e487b7160e01b600052603260045260246000fd5b60200101906001600160f81b031916908160001a905350600f60fb1b8160018151811061172057634e487b7160e01b600052603260045260246000fd5b60200101906001600160f81b031916908160001a9053506000611744846002611da5565b61174f906001611d8d565b90505b60018111156117e3576f181899199a1a9b1b9c1cb0b131b232b360811b85600f166010811061179157634e487b7160e01b600052603260045260246000fd5b1a60f81b8282815181106117b557634e487b7160e01b600052603260045260246000fd5b60200101906001600160f81b031916908160001a90535060049490941c936117dc81611e07565b9050611752565b5083156118325760405162461bcd60e51b815260206004820181905260248201527f537472696e67733a20686578206c656e67746820696e73756666696369656e7460448201526064016106a3565b9392505050565b600054610100900460ff1680611852575060005460ff16155b61186e5760405162461bcd60e51b81526004016106a390611d3f565b600054610100900460ff16158015610f51576000805461ffff1916610101179055801561098a576000805461ff001916905550565b600054610100900460ff16806118bc575060005460ff16155b6118d85760405162461bcd60e51b81526004016106a390611d3f565b600054610100900460ff161580156118fa576000805461ffff19166101011790555b825161190d906036906020860190611a6c565b508151611921906037906020850190611a6c565b5080156108aa576000805461ff0019169055505050565b600054610100900460ff1680611951575060005460ff16155b61196d5760405162461bcd60e51b81526004016106a390611d3f565b600054610100900460ff1615801561198f576000805461ffff19166101011790555b6097805460ff19169055801561098a576000805461ff001916905550565b60975460ff16156119f35760405162461bcd60e51b815260206004820152601060248201526f14185d5cd8589b194e881c185d5cd95960821b60448201526064016106a3565b6001600160a01b038316600090815261012d602052604090205460ff16156108aa5760405162461bcd60e51b815260206004820152602660248201527f4265666f7265546f6b656e5472616e736665723a3a205573657220626c61636b6044820152651b1a5cdd195960d21b60648201526084016106a3565b828054611a7890611e1e565b90600052602060002090601f016020900481019282611a9a5760008555611ae0565b82601f10611ab357805160ff1916838001178555611ae0565b82800160010185558215611ae0579182015b82811115611ae0578251825591602001919060010190611ac5565b50611aec929150611af0565b5090565b5b80821115611aec5760008155600101611af1565b80356001600160a01b0381168114611b1c57600080fd5b919050565b600060208284031215611b32578081fd5b61183282611b05565b60008060408385031215611b4d578081fd5b611b5683611b05565b9150611b6460208401611b05565b90509250929050565b600080600080600060a08688031215611b84578081fd5b611b8d86611b05565b9450611b9b60208701611b05565b9350611ba960408701611b05565b9250611bb760608701611b05565b9150611bc560808701611b05565b90509295509295909350565b600080600060608486031215611be5578283fd5b611bee84611b05565b9250611bfc60208501611b05565b9150604084013590509250925092565b60008060408385031215611c1e578182fd5b611c2783611b05565b946020939093013593505050565b600060208284031215611c46578081fd5b5035919050565b60008060408385031215611c5f578182fd5b82359150611b6460208401611b05565b600060208284031215611c80578081fd5b81356001600160e01b031981168114611832578182fd5b7f416363657373436f6e74726f6c3a206163636f756e7420000000000000000000815260008351611ccf816017850160208801611ddb565b7001034b99036b4b9b9b4b733903937b6329607d1b6017918401918201528351611d00816028840160208801611ddb565b01602801949350505050565b6020815260008251806020840152611d2b816040850160208701611ddb565b601f01601f19169190910160400192915050565b6020808252602e908201527f496e697469616c697a61626c653a20636f6e747261637420697320616c72656160408201526d191e481a5b9a5d1a585b1a5e995960921b606082015260800190565b60008219821115611da057611da0611e59565b500190565b6000816000190483118215151615611dbf57611dbf611e59565b500290565b600082821015611dd657611dd6611e59565b500390565b60005b83811015611df6578181015183820152602001611dde565b8381111561120a5750506000910152565b600081611e1657611e16611e59565b506000190190565b600181811c90821680611e3257607f821691505b60208210811415611e5357634e487b7160e01b600052602260045260246000fd5b50919050565b634e487b7160e01b600052601160045260246000fdfe97667070c54ef182b0f5858b034beac1b6f3089aa2d3188bb1e8929f4fa9b92965d7a28e3265b37a6474929f336521b332c1681b933f6cb9f3376673440d862aa264697066735822122021116acab105720b7d4be45491622c7cc10a78f76d89a92b02f6000f070d3d4164736f6c63430008040033",
  "immutableReferences": {},
  "source": "// SPDX-License-Identifier: MIT\npragma solidity 0.8.4;\n\nimport \"@openzeppelin/contracts-upgradeable/token/ERC20/ERC20Upgradeable.sol\";\nimport \"@openzeppelin/contracts-upgradeable/token/ERC20/extensions/ERC20BurnableUpgradeable.sol\";\nimport \"@openzeppelin/contracts-upgradeable/security/PausableUpgradeable.sol\";\nimport \"@openzeppelin/contracts-upgradeable/access/AccessControlUpgradeable.sol\";\nimport \"@openzeppelin/contracts-upgradeable/proxy/utils/Initializable.sol\";\n\ncontract NitroNetwork is\n    Initializable,\n    ERC20Upgradeable,\n    ERC20BurnableUpgradeable,\n    PausableUpgradeable,\n    AccessControlUpgradeable\n{\n    bytes32 public constant GOVERNANCE_ROLE = keccak256(\"GOVERNANCE_ROLE\");\n    bytes32 public constant OPERATOR_ROLE = keccak256(\"OPERATOR_ROLE\");\n    bytes32 public constant PAUSER_ROLE = keccak256(\"PAUSER_ROLE\");\n    bytes32 public constant MINTER_ROLE = keccak256(\"MINTER_ROLE\");\n\n    mapping(address => bool) public isBlackListed;\n    event AddedBlackList(address _who, uint256 _when);\n    event RemovedBlackList(address _who, uint256 _when);\n    event DestroyedBlackFunds(address _from, address _to, uint256 _howmuch, uint256 _when);\n\n    function initialize(\n        address _admin,\n        address _governance,\n        address _operator,\n        address _pauser,\n        address _minter\n    ) public initializer {\n        __ERC20_init(\"NitroNetwork\", \"ncash\");\n        __ERC20Burnable_init();\n        __Pausable_init();\n        __AccessControl_init();\n\n        _setupRole(DEFAULT_ADMIN_ROLE, _admin);\n        _setupRole(GOVERNANCE_ROLE, _governance);\n        _setupRole(OPERATOR_ROLE, _operator);\n        _setupRole(PAUSER_ROLE, _pauser);\n        _setupRole(MINTER_ROLE, _minter);\n    }\n\n    function pause() public onlyRole(PAUSER_ROLE) {\n        _pause();\n    }\n\n    function unpause() public onlyRole(PAUSER_ROLE) {\n        _unpause();\n    }\n\n    function mint(address to, uint256 amount) public onlyRole(MINTER_ROLE) {\n        _mint(to, amount);\n    }\n\n    function addBlackList(address _who) public onlyRole(OPERATOR_ROLE) {\n        isBlackListed[_who] = true;\n        emit AddedBlackList(_who, block.number);\n    }\n\n    function removeBlackList(address _who) public onlyRole(OPERATOR_ROLE) {\n        isBlackListed[_who] = false;\n        emit RemovedBlackList(_who, block.number);\n    }\n\n    function getBlackListStatus(address _who) external view returns (bool) {\n        return isBlackListed[_who];\n    }\n\n    function recoverBlackFunds(\n        address from,\n        address to,\n        uint256 howmuch\n    ) public onlyRole(OPERATOR_ROLE) {\n        require(\n            isBlackListed[from],\n            \"RecoverBlackFunds:: Blacklist user before recover funds\"\n        );\n        super._beforeTokenTransfer(from, to, howmuch);\n        emit DestroyedBlackFunds(from, to, howmuch, block.number);\n    }\n\n    function _beforeTokenTransfer(\n        address from,\n        address to,\n        uint256 amount\n    ) internal override whenNotPaused {\n        require(!isBlackListed[from], \"BeforeTokenTransfer:: User blacklisted\");\n        super._beforeTokenTransfer(from, to, amount);\n    }\n}",
  "sourcePath": "/Users/rajesh/Documents/allinone/nv/Smart-Contract-2.0/contracts/NitroNetwork.sol",
  "compiler": {
    "name": "solc",
    "version": "0.8.4+commit.c7e474f2.Emscripten.clang"
  },
  "schemaVersion": "3.3.4",
  "updatedAt": "2022-01-16T14:46:40.901Z",
  "devdoc": {
    "kind": "dev",
    "methods": {
      "allowance(address,address)": {
        "details": "See {IERC20-allowance}."
      },
      "approve(address,uint256)": {
        "details": "See {IERC20-approve}. Requirements: - `spender` cannot be the zero address."
      },
      "balanceOf(address)": {
        "details": "See {IERC20-balanceOf}."
      },
      "burn(uint256)": {
        "details": "Destroys `amount` tokens from the caller. See {ERC20-_burn}."
      },
      "burnFrom(address,uint256)": {
        "details": "Destroys `amount` tokens from `account`, deducting from the caller's allowance. See {ERC20-_burn} and {ERC20-allowance}. Requirements: - the caller must have allowance for ``accounts``'s tokens of at least `amount`."
      },
      "decimals()": {
        "details": "Returns the number of decimals used to get its user representation. For example, if `decimals` equals `2`, a balance of `505` tokens should be displayed to a user as `5.05` (`505 / 10 ** 2`). Tokens usually opt for a value of 18, imitating the relationship between Ether and Wei. This is the value {ERC20} uses, unless this function is overridden; NOTE: This information is only used for _display_ purposes: it in no way affects any of the arithmetic of the contract, including {IERC20-balanceOf} and {IERC20-transfer}."
      },
      "decreaseAllowance(address,uint256)": {
        "details": "Atomically decreases the allowance granted to `spender` by the caller. This is an alternative to {approve} that can be used as a mitigation for problems described in {IERC20-approve}. Emits an {Approval} event indicating the updated allowance. Requirements: - `spender` cannot be the zero address. - `spender` must have allowance for the caller of at least `subtractedValue`."
      },
      "getRoleAdmin(bytes32)": {
        "details": "Returns the admin role that controls `role`. See {grantRole} and {revokeRole}. To change a role's admin, use {_setRoleAdmin}."
      },
      "grantRole(bytes32,address)": {
        "details": "Grants `role` to `account`. If `account` had not been already granted `role`, emits a {RoleGranted} event. Requirements: - the caller must have ``role``'s admin role."
      },
      "hasRole(bytes32,address)": {
        "details": "Returns `true` if `account` has been granted `role`."
      },
      "increaseAllowance(address,uint256)": {
        "details": "Atomically increases the allowance granted to `spender` by the caller. This is an alternative to {approve} that can be used as a mitigation for problems described in {IERC20-approve}. Emits an {Approval} event indicating the updated allowance. Requirements: - `spender` cannot be the zero address."
      },
      "name()": {
        "details": "Returns the name of the token."
      },
      "paused()": {
        "details": "Returns true if the contract is paused, and false otherwise."
      },
      "renounceRole(bytes32,address)": {
        "details": "Revokes `role` from the calling account. Roles are often managed via {grantRole} and {revokeRole}: this function's purpose is to provide a mechanism for accounts to lose their privileges if they are compromised (such as when a trusted device is misplaced). If the calling account had been granted `role`, emits a {RoleRevoked} event. Requirements: - the caller must be `account`."
      },
      "revokeRole(bytes32,address)": {
        "details": "Revokes `role` from `account`. If `account` had been granted `role`, emits a {RoleRevoked} event. Requirements: - the caller must have ``role``'s admin role."
      },
      "supportsInterface(bytes4)": {
        "details": "See {IERC165-supportsInterface}."
      },
      "symbol()": {
        "details": "Returns the symbol of the token, usually a shorter version of the name."
      },
      "totalSupply()": {
        "details": "See {IERC20-totalSupply}."
      },
      "transfer(address,uint256)": {
        "details": "See {IERC20-transfer}. Requirements: - `recipient` cannot be the zero address. - the caller must have a balance of at least `amount`."
      },
      "transferFrom(address,address,uint256)": {
        "details": "See {IERC20-transferFrom}. Emits an {Approval} event indicating the updated allowance. This is not required by the EIP. See the note at the beginning of {ERC20}. Requirements: - `sender` and `recipient` cannot be the zero address. - `sender` must have a balance of at least `amount`. - the caller must have allowance for ``sender``'s tokens of at least `amount`."
      }
    },
    "version": 1
  },
  "userdoc": {
    "kind": "user",
    "methods": {},
    "version": 1
  }
}